{
  "contractName": "WeatherNFT",
  "abi": [
    {
      "inputs": [],
      "stateMutability": "nonpayable",
      "type": "constructor"
    },
    {
      "inputs": [
        {
          "internalType": "address",
          "name": "sender",
          "type": "address"
        },
        {
          "internalType": "uint256",
          "name": "tokenId",
          "type": "uint256"
        },
        {
          "internalType": "address",
          "name": "owner",
          "type": "address"
        }
      ],
      "name": "ERC721IncorrectOwner",
      "type": "error"
    },
    {
      "inputs": [
        {
          "internalType": "address",
          "name": "operator",
          "type": "address"
        },
        {
          "internalType": "uint256",
          "name": "tokenId",
          "type": "uint256"
        }
      ],
      "name": "ERC721InsufficientApproval",
      "type": "error"
    },
    {
      "inputs": [
        {
          "internalType": "address",
          "name": "approver",
          "type": "address"
        }
      ],
      "name": "ERC721InvalidApprover",
      "type": "error"
    },
    {
      "inputs": [
        {
          "internalType": "address",
          "name": "operator",
          "type": "address"
        }
      ],
      "name": "ERC721InvalidOperator",
      "type": "error"
    },
    {
      "inputs": [
        {
          "internalType": "address",
          "name": "owner",
          "type": "address"
        }
      ],
      "name": "ERC721InvalidOwner",
      "type": "error"
    },
    {
      "inputs": [
        {
          "internalType": "address",
          "name": "receiver",
          "type": "address"
        }
      ],
      "name": "ERC721InvalidReceiver",
      "type": "error"
    },
    {
      "inputs": [
        {
          "internalType": "address",
          "name": "sender",
          "type": "address"
        }
      ],
      "name": "ERC721InvalidSender",
      "type": "error"
    },
    {
      "inputs": [
        {
          "internalType": "uint256",
          "name": "tokenId",
          "type": "uint256"
        }
      ],
      "name": "ERC721NonexistentToken",
      "type": "error"
    },
    {
      "anonymous": false,
      "inputs": [
        {
          "indexed": true,
          "internalType": "address",
          "name": "owner",
          "type": "address"
        },
        {
          "indexed": true,
          "internalType": "address",
          "name": "approved",
          "type": "address"
        },
        {
          "indexed": true,
          "internalType": "uint256",
          "name": "tokenId",
          "type": "uint256"
        }
      ],
      "name": "Approval",
      "type": "event"
    },
    {
      "anonymous": false,
      "inputs": [
        {
          "indexed": true,
          "internalType": "address",
          "name": "owner",
          "type": "address"
        },
        {
          "indexed": true,
          "internalType": "address",
          "name": "operator",
          "type": "address"
        },
        {
          "indexed": false,
          "internalType": "bool",
          "name": "approved",
          "type": "bool"
        }
      ],
      "name": "ApprovalForAll",
      "type": "event"
    },
    {
      "anonymous": false,
      "inputs": [
        {
          "indexed": false,
          "internalType": "uint256",
          "name": "_fromTokenId",
          "type": "uint256"
        },
        {
          "indexed": false,
          "internalType": "uint256",
          "name": "_toTokenId",
          "type": "uint256"
        }
      ],
      "name": "BatchMetadataUpdate",
      "type": "event"
    },
    {
      "anonymous": false,
      "inputs": [
        {
          "indexed": false,
          "internalType": "uint256",
          "name": "_tokenId",
          "type": "uint256"
        }
      ],
      "name": "MetadataUpdate",
      "type": "event"
    },
    {
      "anonymous": false,
      "inputs": [
        {
          "indexed": true,
          "internalType": "address",
          "name": "from",
          "type": "address"
        },
        {
          "indexed": true,
          "internalType": "address",
          "name": "to",
          "type": "address"
        },
        {
          "indexed": true,
          "internalType": "uint256",
          "name": "tokenId",
          "type": "uint256"
        }
      ],
      "name": "Transfer",
      "type": "event"
    },
    {
      "inputs": [
        {
          "internalType": "address",
          "name": "to",
          "type": "address"
        },
        {
          "internalType": "uint256",
          "name": "tokenId",
          "type": "uint256"
        }
      ],
      "name": "approve",
      "outputs": [],
      "stateMutability": "nonpayable",
      "type": "function"
    },
    {
      "inputs": [
        {
          "internalType": "address",
          "name": "owner",
          "type": "address"
        }
      ],
      "name": "balanceOf",
      "outputs": [
        {
          "internalType": "uint256",
          "name": "",
          "type": "uint256"
        }
      ],
      "stateMutability": "view",
      "type": "function"
    },
    {
      "inputs": [
        {
          "internalType": "uint256",
          "name": "tokenId",
          "type": "uint256"
        }
      ],
      "name": "getApproved",
      "outputs": [
        {
          "internalType": "address",
          "name": "",
          "type": "address"
        }
      ],
      "stateMutability": "view",
      "type": "function"
    },
    {
      "inputs": [
        {
          "internalType": "address",
          "name": "owner",
          "type": "address"
        },
        {
          "internalType": "address",
          "name": "operator",
          "type": "address"
        }
      ],
      "name": "isApprovedForAll",
      "outputs": [
        {
          "internalType": "bool",
          "name": "",
          "type": "bool"
        }
      ],
      "stateMutability": "view",
      "type": "function"
    },
    {
      "inputs": [],
      "name": "name",
      "outputs": [
        {
          "internalType": "string",
          "name": "",
          "type": "string"
        }
      ],
      "stateMutability": "view",
      "type": "function"
    },
    {
      "inputs": [],
      "name": "owner",
      "outputs": [
        {
          "internalType": "address",
          "name": "",
          "type": "address"
        }
      ],
      "stateMutability": "view",
      "type": "function"
    },
    {
      "inputs": [
        {
          "internalType": "uint256",
          "name": "tokenId",
          "type": "uint256"
        }
      ],
      "name": "ownerOf",
      "outputs": [
        {
          "internalType": "address",
          "name": "",
          "type": "address"
        }
      ],
      "stateMutability": "view",
      "type": "function"
    },
    {
      "inputs": [
        {
          "internalType": "address",
          "name": "from",
          "type": "address"
        },
        {
          "internalType": "address",
          "name": "to",
          "type": "address"
        },
        {
          "internalType": "uint256",
          "name": "tokenId",
          "type": "uint256"
        }
      ],
      "name": "safeTransferFrom",
      "outputs": [],
      "stateMutability": "nonpayable",
      "type": "function"
    },
    {
      "inputs": [
        {
          "internalType": "address",
          "name": "from",
          "type": "address"
        },
        {
          "internalType": "address",
          "name": "to",
          "type": "address"
        },
        {
          "internalType": "uint256",
          "name": "tokenId",
          "type": "uint256"
        },
        {
          "internalType": "bytes",
          "name": "data",
          "type": "bytes"
        }
      ],
      "name": "safeTransferFrom",
      "outputs": [],
      "stateMutability": "nonpayable",
      "type": "function"
    },
    {
      "inputs": [
        {
          "internalType": "address",
          "name": "operator",
          "type": "address"
        },
        {
          "internalType": "bool",
          "name": "approved",
          "type": "bool"
        }
      ],
      "name": "setApprovalForAll",
      "outputs": [],
      "stateMutability": "nonpayable",
      "type": "function"
    },
    {
      "inputs": [
        {
          "internalType": "bytes4",
          "name": "interfaceId",
          "type": "bytes4"
        }
      ],
      "name": "supportsInterface",
      "outputs": [
        {
          "internalType": "bool",
          "name": "",
          "type": "bool"
        }
      ],
      "stateMutability": "view",
      "type": "function"
    },
    {
      "inputs": [],
      "name": "symbol",
      "outputs": [
        {
          "internalType": "string",
          "name": "",
          "type": "string"
        }
      ],
      "stateMutability": "view",
      "type": "function"
    },
    {
      "inputs": [],
      "name": "tokenIdCounter",
      "outputs": [
        {
          "internalType": "uint256",
          "name": "",
          "type": "uint256"
        }
      ],
      "stateMutability": "view",
      "type": "function"
    },
    {
      "inputs": [
        {
          "internalType": "uint256",
          "name": "tokenId",
          "type": "uint256"
        }
      ],
      "name": "tokenURI",
      "outputs": [
        {
          "internalType": "string",
          "name": "",
          "type": "string"
        }
      ],
      "stateMutability": "view",
      "type": "function"
    },
    {
      "inputs": [
        {
          "internalType": "address",
          "name": "from",
          "type": "address"
        },
        {
          "internalType": "address",
          "name": "to",
          "type": "address"
        },
        {
          "internalType": "uint256",
          "name": "tokenId",
          "type": "uint256"
        }
      ],
      "name": "transferFrom",
      "outputs": [],
      "stateMutability": "nonpayable",
      "type": "function"
    },
    {
      "inputs": [
        {
          "internalType": "string",
          "name": "_weatherCondition",
          "type": "string"
        }
      ],
      "name": "createNFT",
      "outputs": [],
      "stateMutability": "nonpayable",
      "type": "function"
    },
    {
      "inputs": [],
      "name": "receivePayment",
      "outputs": [],
      "stateMutability": "payable",
      "type": "function"
    }
  ],
  "bytecode": "0x608060405234801562000010575f80fd5b506040518060400160405280600a81526020017f576561746865724e4654000000000000000000000000000000000000000000008152506040518060400160405280600481526020017f574e465400000000000000000000000000000000000000000000000000000000815250815f90816200008d919062000354565b5080600190816200009f919062000354565b5050503360075f6101000a81548173ffffffffffffffffffffffffffffffffffffffff021916908373ffffffffffffffffffffffffffffffffffffffff160217905550600160088190555062000438565b5f81519050919050565b7f4e487b71000000000000000000000000000000000000000000000000000000005f52604160045260245ffd5b7f4e487b71000000000000000000000000000000000000000000000000000000005f52602260045260245ffd5b5f60028204905060018216806200016c57607f821691505b60208210810362000182576200018162000127565b5b50919050565b5f819050815f5260205f209050919050565b5f6020601f8301049050919050565b5f82821b905092915050565b5f60088302620001e67fffffffffffffffffffffffffffffffffffffffffffffffffffffffffffffffff82620001a9565b620001f28683620001a9565b95508019841693508086168417925050509392505050565b5f819050919050565b5f819050919050565b5f6200023c6200023662000230846200020a565b62000213565b6200020a565b9050919050565b5f819050919050565b62000257836200021c565b6200026f620002668262000243565b848454620001b5565b825550505050565b5f90565b6200028562000277565b620002928184846200024c565b505050565b5b81811015620002b957620002ad5f826200027b565b60018101905062000298565b5050565b601f8211156200030857620002d28162000188565b620002dd846200019a565b81016020851015620002ed578190505b62000305620002fc856200019a565b83018262000297565b50505b505050565b5f82821c905092915050565b5f6200032a5f19846008026200030d565b1980831691505092915050565b5f62000344838362000319565b9150826002028217905092915050565b6200035f82620000f0565b67ffffffffffffffff8111156200037b576200037a620000fa565b5b62000387825462000154565b62000394828285620002bd565b5f60209050601f831160018114620003ca575f8415620003b5578287015190505b620003c1858262000337565b86555062000430565b601f198416620003da8662000188565b5f5b828110156200040357848901518255600182019150602085019450602081019050620003dc565b868310156200042357848901516200041f601f89168262000319565b8355505b6001600288020188555050505b505050505050565b61253b80620004465f395ff3fe6080604052600436106100fd575f3560e01c8063835c19f311610094578063a22cb46511610063578063a22cb4651461031b578063b88d4fde14610343578063c87b56dd1461036b578063da2ed03e146103a7578063e985e9c5146103cf576100fd565b8063835c19f3146102935780638da5cb5b1461029d57806395d89b41146102c757806398bdf6f5146102f1576100fd565b806323b872dd116100d057806323b872dd146101cb57806342842e0e146101f35780636352211e1461021b57806370a0823114610257576100fd565b806301ffc9a71461010157806306fdde031461013d578063081812fc14610167578063095ea7b3146101a3575b5f80fd5b34801561010c575f80fd5b506101276004803603810190610122919061199f565b61040b565b60405161013491906119e4565b60405180910390f35b348015610148575f80fd5b5061015161046b565b60405161015e9190611a87565b60405180910390f35b348015610172575f80fd5b5061018d60048036038101906101889190611ada565b6104fa565b60405161019a9190611b44565b60405180910390f35b3480156101ae575f80fd5b506101c960048036038101906101c49190611b87565b610515565b005b3480156101d6575f80fd5b506101f160048036038101906101ec9190611bc5565b61052b565b005b3480156101fe575f80fd5b5061021960048036038101906102149190611bc5565b61062a565b005b348015610226575f80fd5b50610241600480360381019061023c9190611ada565b610649565b60405161024e9190611b44565b60405180910390f35b348015610262575f80fd5b5061027d60048036038101906102789190611c15565b61065a565b60405161028a9190611c4f565b60405180910390f35b61029b610710565b005b3480156102a8575f80fd5b506102b1610712565b6040516102be9190611b44565b60405180910390f35b3480156102d2575f80fd5b506102db610737565b6040516102e89190611a87565b60405180910390f35b3480156102fc575f80fd5b506103056107c7565b6040516103129190611c4f565b60405180910390f35b348015610326575f80fd5b50610341600480360381019061033c9190611c92565b6107cd565b005b34801561034e575f80fd5b5061036960048036038101906103649190611dfc565b6107e3565b005b348015610376575f80fd5b50610391600480360381019061038c9190611ada565b610800565b60405161039e9190611a87565b60405180910390f35b3480156103b2575f80fd5b506103cd60048036038101906103c89190611f1a565b61090b565b005b3480156103da575f80fd5b506103f560048036038101906103f09190611f61565b6109cc565b60405161040291906119e4565b60405180910390f35b5f634906490660e01b7bffffffffffffffffffffffffffffffffffffffffffffffffffffffff1916827bffffffffffffffffffffffffffffffffffffffffffffffffffffffff19161480610464575061046382610a5a565b5b9050919050565b60605f805461047990611fcc565b80601f01602080910402602001604051908101604052809291908181526020018280546104a590611fcc565b80156104f05780601f106104c7576101008083540402835291602001916104f0565b820191905f5260205f20905b8154815290600101906020018083116104d357829003601f168201915b5050505050905090565b5f61050482610b3b565b5061050e82610bc1565b9050919050565b6105278282610522610bfa565b610c01565b5050565b5f73ffffffffffffffffffffffffffffffffffffffff168273ffffffffffffffffffffffffffffffffffffffff160361059b575f6040517f64a0ae920000000000000000000000000000000000000000000000000000000081526004016105929190611b44565b60405180910390fd5b5f6105ae83836105a9610bfa565b610c13565b90508373ffffffffffffffffffffffffffffffffffffffff168173ffffffffffffffffffffffffffffffffffffffff1614610624578382826040517f64283d7b00000000000000000000000000000000000000000000000000000000815260040161061b93929190611ffc565b60405180910390fd5b50505050565b61064483838360405180602001604052805f8152506107e3565b505050565b5f61065382610b3b565b9050919050565b5f8073ffffffffffffffffffffffffffffffffffffffff168273ffffffffffffffffffffffffffffffffffffffff16036106cb575f6040517f89c62b640000000000000000000000000000000000000000000000000000000081526004016106c29190611b44565b60405180910390fd5b60035f8373ffffffffffffffffffffffffffffffffffffffff1673ffffffffffffffffffffffffffffffffffffffff1681526020019081526020015f20549050919050565b565b60075f9054906101000a900473ffffffffffffffffffffffffffffffffffffffff1681565b60606001805461074690611fcc565b80601f016020809104026020016040519081016040528092919081815260200182805461077290611fcc565b80156107bd5780601f10610794576101008083540402835291602001916107bd565b820191905f5260205f20905b8154815290600101906020018083116107a057829003601f168201915b5050505050905090565b60085481565b6107df6107d8610bfa565b8383610e1e565b5050565b6107ee84848461052b565b6107fa84848484610f87565b50505050565b606061080b82610b3b565b505f60065f8481526020019081526020015f20805461082990611fcc565b80601f016020809104026020016040519081016040528092919081815260200182805461085590611fcc565b80156108a05780601f10610877576101008083540402835291602001916108a0565b820191905f5260205f20905b81548152906001019060200180831161088357829003601f168201915b505050505090505f6108b0611139565b90505f8151036108c4578192505050610906565b5f825111156108f85780826040516020016108e092919061206b565b60405160208183030381529060405292505050610906565b6109018461114f565b925050505b919050565b60075f9054906101000a900473ffffffffffffffffffffffffffffffffffffffff1673ffffffffffffffffffffffffffffffffffffffff163373ffffffffffffffffffffffffffffffffffffffff161461099a576040517f08c379a0000000000000000000000000000000000000000000000000000000008152600401610991906120d8565b60405180910390fd5b6109a6336008546111b5565b6109b2600854826111d2565b60085f8154809291906109c490612123565b919050555050565b5f60055f8473ffffffffffffffffffffffffffffffffffffffff1673ffffffffffffffffffffffffffffffffffffffff1681526020019081526020015f205f8373ffffffffffffffffffffffffffffffffffffffff1673ffffffffffffffffffffffffffffffffffffffff1681526020019081526020015f205f9054906101000a900460ff16905092915050565b5f7f80ac58cd000000000000000000000000000000000000000000000000000000007bffffffffffffffffffffffffffffffffffffffffffffffffffffffff1916827bffffffffffffffffffffffffffffffffffffffffffffffffffffffff19161480610b2457507f5b5e139f000000000000000000000000000000000000000000000000000000007bffffffffffffffffffffffffffffffffffffffffffffffffffffffff1916827bffffffffffffffffffffffffffffffffffffffffffffffffffffffff1916145b80610b345750610b338261122c565b5b9050919050565b5f80610b4683611295565b90505f73ffffffffffffffffffffffffffffffffffffffff168173ffffffffffffffffffffffffffffffffffffffff1603610bb857826040517f7e273289000000000000000000000000000000000000000000000000000000008152600401610baf9190611c4f565b60405180910390fd5b80915050919050565b5f60045f8381526020019081526020015f205f9054906101000a900473ffffffffffffffffffffffffffffffffffffffff169050919050565b5f33905090565b610c0e83838360016112ce565b505050565b5f80610c1e84611295565b90505f73ffffffffffffffffffffffffffffffffffffffff168373ffffffffffffffffffffffffffffffffffffffff1614610c5f57610c5e81848661148d565b5b5f73ffffffffffffffffffffffffffffffffffffffff168173ffffffffffffffffffffffffffffffffffffffff1614610cea57610c9e5f855f806112ce565b600160035f8373ffffffffffffffffffffffffffffffffffffffff1673ffffffffffffffffffffffffffffffffffffffff1681526020019081526020015f205f82825403925050819055505b5f73ffffffffffffffffffffffffffffffffffffffff168573ffffffffffffffffffffffffffffffffffffffff1614610d6957600160035f8773ffffffffffffffffffffffffffffffffffffffff1673ffffffffffffffffffffffffffffffffffffffff1681526020019081526020015f205f82825401925050819055505b8460025f8681526020019081526020015f205f6101000a81548173ffffffffffffffffffffffffffffffffffffffff021916908373ffffffffffffffffffffffffffffffffffffffff160217905550838573ffffffffffffffffffffffffffffffffffffffff168273ffffffffffffffffffffffffffffffffffffffff167fddf252ad1be2c89b69c2b068fc378daa952ba7f163c4a11628f55a4df523b3ef60405160405180910390a4809150509392505050565b5f73ffffffffffffffffffffffffffffffffffffffff168273ffffffffffffffffffffffffffffffffffffffff1603610e8e57816040517f5b08ba18000000000000000000000000000000000000000000000000000000008152600401610e859190611b44565b60405180910390fd5b8060055f8573ffffffffffffffffffffffffffffffffffffffff1673ffffffffffffffffffffffffffffffffffffffff1681526020019081526020015f205f8473ffffffffffffffffffffffffffffffffffffffff1673ffffffffffffffffffffffffffffffffffffffff1681526020019081526020015f205f6101000a81548160ff0219169083151502179055508173ffffffffffffffffffffffffffffffffffffffff168373ffffffffffffffffffffffffffffffffffffffff167f17307eab39ab6107e8899845ad3d59bd9653f200f220920489ca2b5937696c3183604051610f7a91906119e4565b60405180910390a3505050565b5f8373ffffffffffffffffffffffffffffffffffffffff163b1115611133578273ffffffffffffffffffffffffffffffffffffffff1663150b7a02610fca610bfa565b8685856040518563ffffffff1660e01b8152600401610fec94939291906121bc565b6020604051808303815f875af192505050801561102757506040513d601f19601f82011682018060405250810190611024919061221a565b60015b6110a8573d805f8114611055576040519150601f19603f3d011682016040523d82523d5f602084013e61105a565b606091505b505f8151036110a057836040517f64a0ae920000000000000000000000000000000000000000000000000000000081526004016110979190611b44565b60405180910390fd5b805181602001fd5b63150b7a0260e01b7bffffffffffffffffffffffffffffffffffffffffffffffffffffffff1916817bffffffffffffffffffffffffffffffffffffffffffffffffffffffff19161461113157836040517f64a0ae920000000000000000000000000000000000000000000000000000000081526004016111289190611b44565b60405180910390fd5b505b50505050565b606060405180602001604052805f815250905090565b606061115a82610b3b565b505f611164611139565b90505f8151116111825760405180602001604052805f8152506111ad565b8061118c84611550565b60405160200161119d92919061206b565b6040516020818303038152906040525b915050919050565b6111ce828260405180602001604052805f81525061161a565b5050565b8060065f8481526020019081526020015f2090816111f091906123e2565b507ff8e1a15aba9398e019f0b49df1a4fde98ee17ae345cb5f6b5e2c27f5033e8ce7826040516112209190611c4f565b60405180910390a15050565b5f7f01ffc9a7000000000000000000000000000000000000000000000000000000007bffffffffffffffffffffffffffffffffffffffffffffffffffffffff1916827bffffffffffffffffffffffffffffffffffffffffffffffffffffffff1916149050919050565b5f60025f8381526020019081526020015f205f9054906101000a900473ffffffffffffffffffffffffffffffffffffffff169050919050565b808061130657505f73ffffffffffffffffffffffffffffffffffffffff168273ffffffffffffffffffffffffffffffffffffffff1614155b15611438575f61131584610b3b565b90505f73ffffffffffffffffffffffffffffffffffffffff168373ffffffffffffffffffffffffffffffffffffffff161415801561137f57508273ffffffffffffffffffffffffffffffffffffffff168173ffffffffffffffffffffffffffffffffffffffff1614155b8015611392575061139081846109cc565b155b156113d457826040517fa9fbf51f0000000000000000000000000000000000000000000000000000000081526004016113cb9190611b44565b60405180910390fd5b811561143657838573ffffffffffffffffffffffffffffffffffffffff168273ffffffffffffffffffffffffffffffffffffffff167f8c5be1e5ebec7d5bd14f71427d1e84f3dd0314c0f7b2291e5b200ac8c7c3b92560405160405180910390a45b505b8360045f8581526020019081526020015f205f6101000a81548173ffffffffffffffffffffffffffffffffffffffff021916908373ffffffffffffffffffffffffffffffffffffffff16021790555050505050565b611498838383611635565b61154b575f73ffffffffffffffffffffffffffffffffffffffff168373ffffffffffffffffffffffffffffffffffffffff160361150c57806040517f7e2732890000000000000000000000000000000000000000000000000000000081526004016115039190611c4f565b60405180910390fd5b81816040517f177e802f0000000000000000000000000000000000000000000000000000000081526004016115429291906124b1565b60405180910390fd5b505050565b60605f600161155e846116f5565b0190505f8167ffffffffffffffff81111561157c5761157b611cd8565b5b6040519080825280601f01601f1916602001820160405280156115ae5781602001600182028036833780820191505090505b5090505f82602001820190505b60011561160f578080600190039150507f3031323334353637383961626364656600000000000000000000000000000000600a86061a8153600a8581611604576116036124d8565b5b0494505f85036115bb575b819350505050919050565b6116248383611846565b6116305f848484610f87565b505050565b5f8073ffffffffffffffffffffffffffffffffffffffff168373ffffffffffffffffffffffffffffffffffffffff16141580156116ec57508273ffffffffffffffffffffffffffffffffffffffff168473ffffffffffffffffffffffffffffffffffffffff1614806116ad57506116ac84846109cc565b5b806116eb57508273ffffffffffffffffffffffffffffffffffffffff166116d383610bc1565b73ffffffffffffffffffffffffffffffffffffffff16145b5b90509392505050565b5f805f90507a184f03e93ff9f4daa797ed6e38ed64bf6a1f0100000000000000008310611751577a184f03e93ff9f4daa797ed6e38ed64bf6a1f0100000000000000008381611747576117466124d8565b5b0492506040810190505b6d04ee2d6d415b85acef8100000000831061178e576d04ee2d6d415b85acef81000000008381611784576117836124d8565b5b0492506020810190505b662386f26fc1000083106117bd57662386f26fc1000083816117b3576117b26124d8565b5b0492506010810190505b6305f5e10083106117e6576305f5e10083816117dc576117db6124d8565b5b0492506008810190505b612710831061180b576127108381611801576118006124d8565b5b0492506004810190505b6064831061182e5760648381611824576118236124d8565b5b0492506002810190505b600a831061183d576001810190505b80915050919050565b5f73ffffffffffffffffffffffffffffffffffffffff168273ffffffffffffffffffffffffffffffffffffffff16036118b6575f6040517f64a0ae920000000000000000000000000000000000000000000000000000000081526004016118ad9190611b44565b60405180910390fd5b5f6118c283835f610c13565b90505f73ffffffffffffffffffffffffffffffffffffffff168173ffffffffffffffffffffffffffffffffffffffff1614611934575f6040517f73c6ac6e00000000000000000000000000000000000000000000000000000000815260040161192b9190611b44565b60405180910390fd5b505050565b5f604051905090565b5f80fd5b5f80fd5b5f7fffffffff0000000000000000000000000000000000000000000000000000000082169050919050565b61197e8161194a565b8114611988575f80fd5b50565b5f8135905061199981611975565b92915050565b5f602082840312156119b4576119b3611942565b5b5f6119c18482850161198b565b91505092915050565b5f8115159050919050565b6119de816119ca565b82525050565b5f6020820190506119f75f8301846119d5565b92915050565b5f81519050919050565b5f82825260208201905092915050565b5f5b83811015611a34578082015181840152602081019050611a19565b5f8484015250505050565b5f601f19601f8301169050919050565b5f611a59826119fd565b611a638185611a07565b9350611a73818560208601611a17565b611a7c81611a3f565b840191505092915050565b5f6020820190508181035f830152611a9f8184611a4f565b905092915050565b5f819050919050565b611ab981611aa7565b8114611ac3575f80fd5b50565b5f81359050611ad481611ab0565b92915050565b5f60208284031215611aef57611aee611942565b5b5f611afc84828501611ac6565b91505092915050565b5f73ffffffffffffffffffffffffffffffffffffffff82169050919050565b5f611b2e82611b05565b9050919050565b611b3e81611b24565b82525050565b5f602082019050611b575f830184611b35565b92915050565b611b6681611b24565b8114611b70575f80fd5b50565b5f81359050611b8181611b5d565b92915050565b5f8060408385031215611b9d57611b9c611942565b5b5f611baa85828601611b73565b9250506020611bbb85828601611ac6565b9150509250929050565b5f805f60608486031215611bdc57611bdb611942565b5b5f611be986828701611b73565b9350506020611bfa86828701611b73565b9250506040611c0b86828701611ac6565b9150509250925092565b5f60208284031215611c2a57611c29611942565b5b5f611c3784828501611b73565b91505092915050565b611c4981611aa7565b82525050565b5f602082019050611c625f830184611c40565b92915050565b611c71816119ca565b8114611c7b575f80fd5b50565b5f81359050611c8c81611c68565b92915050565b5f8060408385031215611ca857611ca7611942565b5b5f611cb585828601611b73565b9250506020611cc685828601611c7e565b9150509250929050565b5f80fd5b5f80fd5b7f4e487b71000000000000000000000000000000000000000000000000000000005f52604160045260245ffd5b611d0e82611a3f565b810181811067ffffffffffffffff82111715611d2d57611d2c611cd8565b5b80604052505050565b5f611d3f611939565b9050611d4b8282611d05565b919050565b5f67ffffffffffffffff821115611d6a57611d69611cd8565b5b611d7382611a3f565b9050602081019050919050565b828183375f83830152505050565b5f611da0611d9b84611d50565b611d36565b905082815260208101848484011115611dbc57611dbb611cd4565b5b611dc7848285611d80565b509392505050565b5f82601f830112611de357611de2611cd0565b5b8135611df3848260208601611d8e565b91505092915050565b5f805f8060808587031215611e1457611e13611942565b5b5f611e2187828801611b73565b9450506020611e3287828801611b73565b9350506040611e4387828801611ac6565b925050606085013567ffffffffffffffff811115611e6457611e63611946565b5b611e7087828801611dcf565b91505092959194509250565b5f67ffffffffffffffff821115611e9657611e95611cd8565b5b611e9f82611a3f565b9050602081019050919050565b5f611ebe611eb984611e7c565b611d36565b905082815260208101848484011115611eda57611ed9611cd4565b5b611ee5848285611d80565b509392505050565b5f82601f830112611f0157611f00611cd0565b5b8135611f11848260208601611eac565b91505092915050565b5f60208284031215611f2f57611f2e611942565b5b5f82013567ffffffffffffffff811115611f4c57611f4b611946565b5b611f5884828501611eed565b91505092915050565b5f8060408385031215611f7757611f76611942565b5b5f611f8485828601611b73565b9250506020611f9585828601611b73565b9150509250929050565b7f4e487b71000000000000000000000000000000000000000000000000000000005f52602260045260245ffd5b5f6002820490506001821680611fe357607f821691505b602082108103611ff657611ff5611f9f565b5b50919050565b5f60608201905061200f5f830186611b35565b61201c6020830185611c40565b6120296040830184611b35565b949350505050565b5f81905092915050565b5f612045826119fd565b61204f8185612031565b935061205f818560208601611a17565b80840191505092915050565b5f612076828561203b565b9150612082828461203b565b91508190509392505050565b7f4f6e6c79206f776e65722063616e20637265617465204e4654730000000000005f82015250565b5f6120c2601a83611a07565b91506120cd8261208e565b602082019050919050565b5f6020820190508181035f8301526120ef816120b6565b9050919050565b7f4e487b71000000000000000000000000000000000000000000000000000000005f52601160045260245ffd5b5f61212d82611aa7565b91507fffffffffffffffffffffffffffffffffffffffffffffffffffffffffffffffff820361215f5761215e6120f6565b5b600182019050919050565b5f81519050919050565b5f82825260208201905092915050565b5f61218e8261216a565b6121988185612174565b93506121a8818560208601611a17565b6121b181611a3f565b840191505092915050565b5f6080820190506121cf5f830187611b35565b6121dc6020830186611b35565b6121e96040830185611c40565b81810360608301526121fb8184612184565b905095945050505050565b5f8151905061221481611975565b92915050565b5f6020828403121561222f5761222e611942565b5b5f61223c84828501612206565b91505092915050565b5f819050815f5260205f209050919050565b5f6020601f8301049050919050565b5f82821b905092915050565b5f600883026122a17fffffffffffffffffffffffffffffffffffffffffffffffffffffffffffffffff82612266565b6122ab8683612266565b95508019841693508086168417925050509392505050565b5f819050919050565b5f6122e66122e16122dc84611aa7565b6122c3565b611aa7565b9050919050565b5f819050919050565b6122ff836122cc565b61231361230b826122ed565b848454612272565b825550505050565b5f90565b61232761231b565b6123328184846122f6565b505050565b5b818110156123555761234a5f8261231f565b600181019050612338565b5050565b601f82111561239a5761236b81612245565b61237484612257565b81016020851015612383578190505b61239761238f85612257565b830182612337565b50505b505050565b5f82821c905092915050565b5f6123ba5f198460080261239f565b1980831691505092915050565b5f6123d283836123ab565b9150826002028217905092915050565b6123eb826119fd565b67ffffffffffffffff81111561240457612403611cd8565b5b61240e8254611fcc565b612419828285612359565b5f60209050601f83116001811461244a575f8415612438578287015190505b61244285826123c7565b8655506124a9565b601f19841661245886612245565b5f5b8281101561247f5784890151825560018201915060208501945060208101905061245a565b8683101561249c5784890151612498601f8916826123ab565b8355505b6001600288020188555050505b505050505050565b5f6040820190506124c45f830185611b35565b6124d16020830184611c40565b9392505050565b7f4e487b71000000000000000000000000000000000000000000000000000000005f52601260045260245ffdfea26469706673582212207d591ab09b89b0dfdd98175c2059e4126ce9730c8842de00d7551800b57ae98e64736f6c63430008150033",
  "immutableReferences": {},
  "source": "// SPDX-License-Identifier: MIT\r\npragma solidity ^0.8.0;\r\n\r\nimport \"@openzeppelin/contracts/token/ERC721/extensions/ERC721URIStorage.sol\";\r\n\r\ncontract WeatherNFT is ERC721URIStorage {\r\n    address public owner;\r\n    uint256 public tokenIdCounter;\r\n\r\n    constructor() ERC721(\"WeatherNFT\", \"WNFT\") {\r\n        owner = msg.sender;\r\n        tokenIdCounter = 1;\r\n    }\r\n\r\n    // Hava durumu kouluna gre NFT oluturma fonksiyonu\r\n    function createNFT(string memory _weatherCondition) external {\r\n        require(msg.sender == owner, \"Only owner can create NFTs\");\r\n        \r\n        // Hava durumu kouluna gre NFT olutur\r\n        _safeMint(msg.sender, tokenIdCounter);\r\n        _setTokenURI(tokenIdCounter, _weatherCondition);\r\n        \r\n        tokenIdCounter++;\r\n    }\r\n\r\n    // deme alma fonksiyonu\r\n    function receivePayment() external payable {\r\n        // deme ilemleri burada gerekletirilir\r\n    }\r\n}\r\n",
  "sourcePath": "C:\\Users\\DELL\\Desktop\\hava-durumu-projesi\\contracts\\WeatherNFT.sol",
  "compiler": {
    "name": "solc",
    "version": "0.8.21+commit.d9974bed.Emscripten.clang"
  },
  "schemaVersion": "3.4.16",
  "updatedAt": "2024-02-18T22:48:57.338Z",
  "devdoc": {
    "errors": {
      "ERC721IncorrectOwner(address,uint256,address)": [
        {
          "details": "Indicates an error related to the ownership over a particular token. Used in transfers.",
          "params": {
            "owner": "Address of the current owner of a token.",
            "sender": "Address whose tokens are being transferred.",
            "tokenId": "Identifier number of a token."
          }
        }
      ],
      "ERC721InsufficientApproval(address,uint256)": [
        {
          "details": "Indicates a failure with the `operator`s approval. Used in transfers.",
          "params": {
            "operator": "Address that may be allowed to operate on tokens without being their owner.",
            "tokenId": "Identifier number of a token."
          }
        }
      ],
      "ERC721InvalidApprover(address)": [
        {
          "details": "Indicates a failure with the `approver` of a token to be approved. Used in approvals.",
          "params": {
            "approver": "Address initiating an approval operation."
          }
        }
      ],
      "ERC721InvalidOperator(address)": [
        {
          "details": "Indicates a failure with the `operator` to be approved. Used in approvals.",
          "params": {
            "operator": "Address that may be allowed to operate on tokens without being their owner."
          }
        }
      ],
      "ERC721InvalidOwner(address)": [
        {
          "details": "Indicates that an address can't be an owner. For example, `address(0)` is a forbidden owner in EIP-20. Used in balance queries.",
          "params": {
            "owner": "Address of the current owner of a token."
          }
        }
      ],
      "ERC721InvalidReceiver(address)": [
        {
          "details": "Indicates a failure with the token `receiver`. Used in transfers.",
          "params": {
            "receiver": "Address to which tokens are being transferred."
          }
        }
      ],
      "ERC721InvalidSender(address)": [
        {
          "details": "Indicates a failure with the token `sender`. Used in transfers.",
          "params": {
            "sender": "Address whose tokens are being transferred."
          }
        }
      ],
      "ERC721NonexistentToken(uint256)": [
        {
          "details": "Indicates a `tokenId` whose `owner` is the zero address.",
          "params": {
            "tokenId": "Identifier number of a token."
          }
        }
      ]
    },
    "events": {
      "Approval(address,address,uint256)": {
        "details": "Emitted when `owner` enables `approved` to manage the `tokenId` token."
      },
      "ApprovalForAll(address,address,bool)": {
        "details": "Emitted when `owner` enables or disables (`approved`) `operator` to manage all of its assets."
      },
      "BatchMetadataUpdate(uint256,uint256)": {
        "details": "This event emits when the metadata of a range of tokens is changed. So that the third-party platforms such as NFT market could timely update the images and related attributes of the NFTs."
      },
      "MetadataUpdate(uint256)": {
        "details": "This event emits when the metadata of a token is changed. So that the third-party platforms such as NFT market could timely update the images and related attributes of the NFT."
      },
      "Transfer(address,address,uint256)": {
        "details": "Emitted when `tokenId` token is transferred from `from` to `to`."
      }
    },
    "kind": "dev",
    "methods": {
      "approve(address,uint256)": {
        "details": "See {IERC721-approve}."
      },
      "balanceOf(address)": {
        "details": "See {IERC721-balanceOf}."
      },
      "getApproved(uint256)": {
        "details": "See {IERC721-getApproved}."
      },
      "isApprovedForAll(address,address)": {
        "details": "See {IERC721-isApprovedForAll}."
      },
      "name()": {
        "details": "See {IERC721Metadata-name}."
      },
      "ownerOf(uint256)": {
        "details": "See {IERC721-ownerOf}."
      },
      "safeTransferFrom(address,address,uint256)": {
        "details": "See {IERC721-safeTransferFrom}."
      },
      "safeTransferFrom(address,address,uint256,bytes)": {
        "details": "See {IERC721-safeTransferFrom}."
      },
      "setApprovalForAll(address,bool)": {
        "details": "See {IERC721-setApprovalForAll}."
      },
      "supportsInterface(bytes4)": {
        "details": "See {IERC165-supportsInterface}"
      },
      "symbol()": {
        "details": "See {IERC721Metadata-symbol}."
      },
      "tokenURI(uint256)": {
        "details": "See {IERC721Metadata-tokenURI}."
      },
      "transferFrom(address,address,uint256)": {
        "details": "See {IERC721-transferFrom}."
      }
    },
    "version": 1
  },
  "userdoc": {
    "kind": "user",
    "methods": {},
    "version": 1
  }
}